{
  "_format": "hh-sol-artifact-1",
  "contractName": "MakeNFT",
  "sourceName": "contracts/MakeNFT.sol",
  "abi": [
    {
      "inputs": [],
      "stateMutability": "nonpayable",
      "type": "constructor"
    },
    {
      "anonymous": false,
      "inputs": [
        {
          "indexed": true,
          "internalType": "address",
          "name": "owner",
          "type": "address"
        },
        {
          "indexed": true,
          "internalType": "address",
          "name": "approved",
          "type": "address"
        },
        {
          "indexed": true,
          "internalType": "uint256",
          "name": "tokenId",
          "type": "uint256"
        }
      ],
      "name": "Approval",
      "type": "event"
    },
    {
      "anonymous": false,
      "inputs": [
        {
          "indexed": true,
          "internalType": "address",
          "name": "owner",
          "type": "address"
        },
        {
          "indexed": true,
          "internalType": "address",
          "name": "operator",
          "type": "address"
        },
        {
          "indexed": false,
          "internalType": "bool",
          "name": "approved",
          "type": "bool"
        }
      ],
      "name": "ApprovalForAll",
      "type": "event"
    },
    {
      "anonymous": false,
      "inputs": [
        {
          "indexed": false,
          "internalType": "address",
          "name": "sender",
          "type": "address"
        },
        {
          "indexed": false,
          "internalType": "uint256",
          "name": "tokenId",
          "type": "uint256"
        }
      ],
      "name": "NewNFTMinted",
      "type": "event"
    },
    {
      "anonymous": false,
      "inputs": [
        {
          "indexed": true,
          "internalType": "address",
          "name": "from",
          "type": "address"
        },
        {
          "indexed": true,
          "internalType": "address",
          "name": "to",
          "type": "address"
        },
        {
          "indexed": true,
          "internalType": "uint256",
          "name": "tokenId",
          "type": "uint256"
        }
      ],
      "name": "Transfer",
      "type": "event"
    },
    {
      "inputs": [
        {
          "internalType": "address",
          "name": "to",
          "type": "address"
        },
        {
          "internalType": "uint256",
          "name": "tokenId",
          "type": "uint256"
        }
      ],
      "name": "approve",
      "outputs": [],
      "stateMutability": "nonpayable",
      "type": "function"
    },
    {
      "inputs": [
        {
          "internalType": "address",
          "name": "owner",
          "type": "address"
        }
      ],
      "name": "balanceOf",
      "outputs": [
        {
          "internalType": "uint256",
          "name": "",
          "type": "uint256"
        }
      ],
      "stateMutability": "view",
      "type": "function"
    },
    {
      "inputs": [],
      "name": "generateNFT",
      "outputs": [],
      "stateMutability": "nonpayable",
      "type": "function"
    },
    {
      "inputs": [
        {
          "internalType": "uint256",
          "name": "tokenId",
          "type": "uint256"
        }
      ],
      "name": "getApproved",
      "outputs": [
        {
          "internalType": "address",
          "name": "",
          "type": "address"
        }
      ],
      "stateMutability": "view",
      "type": "function"
    },
    {
      "inputs": [
        {
          "internalType": "address",
          "name": "owner",
          "type": "address"
        },
        {
          "internalType": "address",
          "name": "operator",
          "type": "address"
        }
      ],
      "name": "isApprovedForAll",
      "outputs": [
        {
          "internalType": "bool",
          "name": "",
          "type": "bool"
        }
      ],
      "stateMutability": "view",
      "type": "function"
    },
    {
      "inputs": [],
      "name": "name",
      "outputs": [
        {
          "internalType": "string",
          "name": "",
          "type": "string"
        }
      ],
      "stateMutability": "view",
      "type": "function"
    },
    {
      "inputs": [
        {
          "internalType": "uint256",
          "name": "tokenId",
          "type": "uint256"
        }
      ],
      "name": "ownerOf",
      "outputs": [
        {
          "internalType": "address",
          "name": "",
          "type": "address"
        }
      ],
      "stateMutability": "view",
      "type": "function"
    },
    {
      "inputs": [
        {
          "internalType": "uint256",
          "name": "tokenId",
          "type": "uint256"
        }
      ],
      "name": "pickRandomFirstWord",
      "outputs": [
        {
          "internalType": "string",
          "name": "",
          "type": "string"
        }
      ],
      "stateMutability": "view",
      "type": "function"
    },
    {
      "inputs": [
        {
          "internalType": "uint256",
          "name": "tokenId",
          "type": "uint256"
        }
      ],
      "name": "pickRandomSecondWord",
      "outputs": [
        {
          "internalType": "string",
          "name": "",
          "type": "string"
        }
      ],
      "stateMutability": "view",
      "type": "function"
    },
    {
      "inputs": [
        {
          "internalType": "address",
          "name": "from",
          "type": "address"
        },
        {
          "internalType": "address",
          "name": "to",
          "type": "address"
        },
        {
          "internalType": "uint256",
          "name": "tokenId",
          "type": "uint256"
        }
      ],
      "name": "safeTransferFrom",
      "outputs": [],
      "stateMutability": "nonpayable",
      "type": "function"
    },
    {
      "inputs": [
        {
          "internalType": "address",
          "name": "from",
          "type": "address"
        },
        {
          "internalType": "address",
          "name": "to",
          "type": "address"
        },
        {
          "internalType": "uint256",
          "name": "tokenId",
          "type": "uint256"
        },
        {
          "internalType": "bytes",
          "name": "_data",
          "type": "bytes"
        }
      ],
      "name": "safeTransferFrom",
      "outputs": [],
      "stateMutability": "nonpayable",
      "type": "function"
    },
    {
      "inputs": [
        {
          "internalType": "address",
          "name": "operator",
          "type": "address"
        },
        {
          "internalType": "bool",
          "name": "approved",
          "type": "bool"
        }
      ],
      "name": "setApprovalForAll",
      "outputs": [],
      "stateMutability": "nonpayable",
      "type": "function"
    },
    {
      "inputs": [
        {
          "internalType": "bytes4",
          "name": "interfaceId",
          "type": "bytes4"
        }
      ],
      "name": "supportsInterface",
      "outputs": [
        {
          "internalType": "bool",
          "name": "",
          "type": "bool"
        }
      ],
      "stateMutability": "view",
      "type": "function"
    },
    {
      "inputs": [],
      "name": "symbol",
      "outputs": [
        {
          "internalType": "string",
          "name": "",
          "type": "string"
        }
      ],
      "stateMutability": "view",
      "type": "function"
    },
    {
      "inputs": [
        {
          "internalType": "uint256",
          "name": "index",
          "type": "uint256"
        }
      ],
      "name": "tokenByIndex",
      "outputs": [
        {
          "internalType": "uint256",
          "name": "",
          "type": "uint256"
        }
      ],
      "stateMutability": "view",
      "type": "function"
    },
    {
      "inputs": [
        {
          "internalType": "address",
          "name": "owner",
          "type": "address"
        },
        {
          "internalType": "uint256",
          "name": "index",
          "type": "uint256"
        }
      ],
      "name": "tokenOfOwnerByIndex",
      "outputs": [
        {
          "internalType": "uint256",
          "name": "",
          "type": "uint256"
        }
      ],
      "stateMutability": "view",
      "type": "function"
    },
    {
      "inputs": [
        {
          "internalType": "uint256",
          "name": "tokenId",
          "type": "uint256"
        }
      ],
      "name": "tokenURI",
      "outputs": [
        {
          "internalType": "string",
          "name": "",
          "type": "string"
        }
      ],
      "stateMutability": "view",
      "type": "function"
    },
    {
      "inputs": [],
      "name": "totalSupply",
      "outputs": [
        {
          "internalType": "uint256",
          "name": "",
          "type": "uint256"
        }
      ],
      "stateMutability": "view",
      "type": "function"
    },
    {
      "inputs": [
        {
          "internalType": "address",
          "name": "from",
          "type": "address"
        },
        {
          "internalType": "address",
          "name": "to",
          "type": "address"
        },
        {
          "internalType": "uint256",
          "name": "tokenId",
          "type": "uint256"
        }
      ],
      "name": "transferFrom",
      "outputs": [],
      "stateMutability": "nonpayable",
      "type": "function"
    }
  ],
  "bytecode": "0x608060405260405180610160016040528061012f8152602001620043c061012f9139600c90805190602001906200003892919062000715565b506040518061014001604052806040518060400160405280600481526020017f4461726b0000000000000000000000000000000000000000000000000000000081525081526020016040518060400160405280600581526020017f4c6967687400000000000000000000000000000000000000000000000000000081525081526020016040518060400160405280600981526020017f506c61746e696e756d000000000000000000000000000000000000000000000081525081526020016040518060400160405280600581526020017f53746f6e6500000000000000000000000000000000000000000000000000000081525081526020016040518060400160405280600481526020017f576f6f640000000000000000000000000000000000000000000000000000000081525081526020016040518060400160405280600881526020017f4d6972726f72656400000000000000000000000000000000000000000000000081525081526020016040518060400160405280600581526020017f576174657200000000000000000000000000000000000000000000000000000081525081526020016040518060400160405280600781526020017f5468756e6465720000000000000000000000000000000000000000000000000081525081526020016040518060400160405280600581526020017f4769616e7400000000000000000000000000000000000000000000000000000081525081526020016040518060400160405280600881526020017f476c697463686564000000000000000000000000000000000000000000000000815250815250600d90600a620002a3929190620007a6565b506040518061016001604052806040518060400160405280600381526020017f456c66000000000000000000000000000000000000000000000000000000000081525081526020016040518060400160405280600681526020017f4379626f7267000000000000000000000000000000000000000000000000000081525081526020016040518060400160405280600381526020017f4f7263000000000000000000000000000000000000000000000000000000000081525081526020016040518060400160405280600581526020017f48756d616e00000000000000000000000000000000000000000000000000000081525081526020016040518060400160405280600281526020017f414900000000000000000000000000000000000000000000000000000000000081525081526020016040518060400160405280600581526020017f447761726600000000000000000000000000000000000000000000000000000081525081526020016040518060400160405280600581526020017f48756d616e00000000000000000000000000000000000000000000000000000081525081526020016040518060400160405280600c81526020017f536861706573686966746572000000000000000000000000000000000000000081525081526020016040518060400160405280600881526020017f476172676f796c6500000000000000000000000000000000000000000000000081525081526020016040518060400160405280600481526020017f576f6c660000000000000000000000000000000000000000000000000000000081525081526020016040518060400160405280600c81526020017f4879627269642048756d616e0000000000000000000000000000000000000000815250815250600e90600b620005499291906200080d565b503480156200055757600080fd5b506040518060400160405280600a81526020017f776562332d626c69747a000000000000000000000000000000000000000000008152506040518060400160405280600581526020017f424c49545a0000000000000000000000000000000000000000000000000000008152508160009080519060200190620005dc92919062000715565b508060019080519060200190620005f592919062000715565b505050620006436040518060400160405280600e81526020017f47656e657261746564204e46542e0000000000000000000000000000000000008152506200064960201b6200129c1760201c565b62000a2e565b620006e98160405160240162000660919062000942565b6040516020818303038152906040527f41304fac000000000000000000000000000000000000000000000000000000007bffffffffffffffffffffffffffffffffffffffffffffffffffffffff19166020820180517bffffffffffffffffffffffffffffffffffffffffffffffffffffffff8381831617835250505050620006ec60201b60201c565b50565b60008151905060006a636f6e736f6c652e6c6f679050602083016000808483855afa5050505050565b8280546200072390620009b8565b90600052602060002090601f01602090048101928262000747576000855562000793565b82601f106200076257805160ff191683800117855562000793565b8280016001018555821562000793579182015b828111156200079257825182559160200191906001019062000775565b5b509050620007a2919062000874565b5090565b828054828255906000526020600020908101928215620007fa579160200282015b82811115620007f9578251829080519060200190620007e892919062000715565b5091602001919060010190620007c7565b5b50905062000809919062000893565b5090565b82805482825590600052602060002090810192821562000861579160200282015b82811115620008605782518290805190602001906200084f92919062000715565b50916020019190600101906200082e565b5b50905062000870919062000893565b5090565b5b808211156200088f57600081600090555060010162000875565b5090565b5b80821115620008b75760008181620008ad9190620008bb565b5060010162000894565b5090565b508054620008c990620009b8565b6000825580601f10620008dd5750620008fe565b601f016020900490600052602060002090810190620008fd919062000874565b5b50565b60006200090e8262000966565b6200091a818562000971565b93506200092c81856020860162000982565b620009378162000a1d565b840191505092915050565b600060208201905081810360008301526200095e818462000901565b905092915050565b600081519050919050565b600082825260208201905092915050565b60005b83811015620009a257808201518184015260208101905062000985565b83811115620009b2576000848401525b50505050565b60006002820490506001821680620009d157607f821691505b60208210811415620009e857620009e7620009ee565b5b50919050565b7f4e487b7100000000000000000000000000000000000000000000000000000000600052602260045260246000fd5b6000601f19601f8301169050919050565b6139828062000a3e6000396000f3fe608060405234801561001057600080fd5b50600436106101215760003560e01c80634f6ccce7116100ad578063a22cb46511610071578063a22cb4651461032e578063b187301f1461034a578063b88d4fde1461037a578063c87b56dd14610396578063e985e9c5146103c657610121565b80634f6ccce71461027657806362deda7a146102a65780636352211e146102b057806370a08231146102e057806395d89b411461031057610121565b806318160ddd116100f457806318160ddd146101c057806323b872dd146101de5780632de38d68146101fa5780632f745c591461022a57806342842e0e1461025a57610121565b806301ffc9a71461012657806306fdde0314610156578063081812fc14610174578063095ea7b3146101a4575b600080fd5b610140600480360381019061013b919061252f565b6103f6565b60405161014d9190612bc3565b60405180910390f35b61015e6104d8565b60405161016b9190612bde565b60405180910390f35b61018e60048036038101906101899190612581565b61056a565b60405161019b9190612b33565b60405180910390f35b6101be60048036038101906101b991906124f3565b6105ef565b005b6101c8610707565b6040516101d59190612e3e565b60405180910390f35b6101f860048036038101906101f391906123ed565b610714565b005b610214600480360381019061020f9190612581565b610774565b6040516102219190612bde565b60405180910390f35b610244600480360381019061023f91906124f3565b610892565b6040516102519190612e3e565b60405180910390f35b610274600480360381019061026f91906123ed565b6108ed565b005b610290600480360381019061028b9190612581565b61090d565b60405161029d9190612e3e565b60405180910390f35b6102ae61095b565b005b6102ca60048036038101906102c59190612581565b610bb9565b6040516102d79190612b33565b60405180910390f35b6102fa60048036038101906102f59190612388565b610c6b565b6040516103079190612e3e565b60405180910390f35b610318610d23565b6040516103259190612bde565b60405180910390f35b610348600480360381019061034391906124b7565b610db5565b005b610364600480360381019061035f9190612581565b610f36565b6040516103719190612bde565b60405180910390f35b610394600480360381019061038f919061243c565b611054565b005b6103b060048036038101906103ab9190612581565b6110b6565b6040516103bd9190612bde565b60405180910390f35b6103e060048036038101906103db91906123b1565b611208565b6040516103ed9190612bc3565b60405180910390f35b60007f80ac58cd000000000000000000000000000000000000000000000000000000007bffffffffffffffffffffffffffffffffffffffffffffffffffffffff1916827bffffffffffffffffffffffffffffffffffffffffffffffffffffffff191614806104c157507f5b5e139f000000000000000000000000000000000000000000000000000000007bffffffffffffffffffffffffffffffffffffffffffffffffffffffff1916827bffffffffffffffffffffffffffffffffffffffffffffffffffffffff1916145b806104d157506104d082611335565b5b9050919050565b6060600080546104e7906130d2565b80601f0160208091040260200160405190810160405280929190818152602001828054610513906130d2565b80156105605780601f1061053557610100808354040283529160200191610560565b820191906000526020600020905b81548152906001019060200180831161054357829003601f168201915b5050505050905090565b60006105758261139f565b6105b4576040517f08c379a00000000000000000000000000000000000000000000000000000000081526004016105ab90612d9e565b60405180910390fd5b6004600083815260200190815260200160002060009054906101000a900473ffffffffffffffffffffffffffffffffffffffff169050919050565b60006105fa82610bb9565b90508073ffffffffffffffffffffffffffffffffffffffff168373ffffffffffffffffffffffffffffffffffffffff16141561066b576040517f08c379a000000000000000000000000000000000000000000000000000000000815260040161066290612dfe565b60405180910390fd5b8073ffffffffffffffffffffffffffffffffffffffff1661068a61140b565b73ffffffffffffffffffffffffffffffffffffffff1614806106b957506106b8816106b361140b565b611208565b5b6106f8576040517f08c379a00000000000000000000000000000000000000000000000000000000081526004016106ef90612cde565b60405180910390fd5b6107028383611413565b505050565b6000600a80549050905090565b61072561071f61140b565b826114cc565b610764576040517f08c379a000000000000000000000000000000000000000000000000000000000815260040161075b90612e1e565b60405180910390fd5b61076f8383836115aa565b505050565b606060006107a861078484611806565b6040516020016107949190612aef565b6040516020818303038152906040526119b3565b9050600d80549050816107bb919061317e565b9050600d81815481106107f7577f4e487b7100000000000000000000000000000000000000000000000000000000600052603260045260246000fd5b90600052602060002001805461080c906130d2565b80601f0160208091040260200160405190810160405280929190818152602001828054610838906130d2565b80156108855780601f1061085a57610100808354040283529160200191610885565b820191906000526020600020905b81548152906001019060200180831161086857829003601f168201915b5050505050915050919050565b6000600860008473ffffffffffffffffffffffffffffffffffffffff1673ffffffffffffffffffffffffffffffffffffffff168152602001908152602001600020600083815260200190815260200160002054905092915050565b61090883838360405180602001604052806000815250611054565b505050565b6000600a8281548110610949577f4e487b7100000000000000000000000000000000000000000000000000000000600052603260045260246000fd5b90600052602060002001549050919050565b600061096760076119e6565b9050600061097482610774565b9050600061098183610f36565b905060008282604051602001610998929190612a35565b60405160208183030381529060405290506000600c826040516020016109bf929190612a59565b60405160208183030381529060405290506000610a04836109df846119f4565b6040516020016109f0929190612aaa565b6040516020818303038152906040526119f4565b9050600081604051602001610a199190612b11565b6040516020818303038152906040529050610a686040518060400160405280601581526020017f0a2d2d2d2d2d2d2d2d2d2d2d2d2d2d2d2d2d2d2d2d000000000000000000000081525061129c565b610a718161129c565b610aaf6040518060400160405280601581526020017f2d2d2d2d2d2d2d2d2d2d2d2d2d2d2d2d2d2d2d2d0a000000000000000000000081525061129c565b610ab93388611bb2565b610ac38782611bd0565b600a87908060018154018082558091505060019003906000526020600020016000909190919091505586600860003373ffffffffffffffffffffffffffffffffffffffff1673ffffffffffffffffffffffffffffffffffffffff1681526020019081526020016000206000610b3860076119e6565b815260200190815260200160002081905550610b546007611c44565b610b776040518060600160405280602581526020016138e8602591398833611c5a565b7f1c05098ed1ff38e6238d2b1b04b2c7977d4c94ce651bda6473f9dba8dbf01da03388604051610ba8929190612b9a565b60405180910390a150505050505050565b6000806002600084815260200190815260200160002060009054906101000a900473ffffffffffffffffffffffffffffffffffffffff169050600073ffffffffffffffffffffffffffffffffffffffff168173ffffffffffffffffffffffffffffffffffffffff161415610c62576040517f08c379a0000000000000000000000000000000000000000000000000000000008152600401610c5990612d1e565b60405180910390fd5b80915050919050565b60008073ffffffffffffffffffffffffffffffffffffffff168273ffffffffffffffffffffffffffffffffffffffff161415610cdc576040517f08c379a0000000000000000000000000000000000000000000000000000000008152600401610cd390612cfe565b60405180910390fd5b600360008373ffffffffffffffffffffffffffffffffffffffff1673ffffffffffffffffffffffffffffffffffffffff168152602001908152602001600020549050919050565b606060018054610d32906130d2565b80601f0160208091040260200160405190810160405280929190818152602001828054610d5e906130d2565b8015610dab5780601f10610d8057610100808354040283529160200191610dab565b820191906000526020600020905b815481529060010190602001808311610d8e57829003601f168201915b5050505050905090565b610dbd61140b565b73ffffffffffffffffffffffffffffffffffffffff168273ffffffffffffffffffffffffffffffffffffffff161415610e2b576040517f08c379a0000000000000000000000000000000000000000000000000000000008152600401610e2290612c9e565b60405180910390fd5b8060056000610e3861140b565b73ffffffffffffffffffffffffffffffffffffffff1673ffffffffffffffffffffffffffffffffffffffff16815260200190815260200160002060008473ffffffffffffffffffffffffffffffffffffffff1673ffffffffffffffffffffffffffffffffffffffff16815260200190815260200160002060006101000a81548160ff0219169083151502179055508173ffffffffffffffffffffffffffffffffffffffff16610ee561140b565b73ffffffffffffffffffffffffffffffffffffffff167f17307eab39ab6107e8899845ad3d59bd9653f200f220920489ca2b5937696c3183604051610f2a9190612bc3565b60405180910390a35050565b60606000610f6a610f4684611806565b604051602001610f569190612a88565b6040516020818303038152906040526119b3565b9050600e8054905081610f7d919061317e565b9050600e8181548110610fb9577f4e487b7100000000000000000000000000000000000000000000000000000000600052603260045260246000fd5b906000526020600020018054610fce906130d2565b80601f0160208091040260200160405190810160405280929190818152602001828054610ffa906130d2565b80156110475780601f1061101c57610100808354040283529160200191611047565b820191906000526020600020905b81548152906001019060200180831161102a57829003601f168201915b5050505050915050919050565b61106561105f61140b565b836114cc565b6110a4576040517f08c379a000000000000000000000000000000000000000000000000000000000815260040161109b90612e1e565b60405180910390fd5b6110b084848484611cf9565b50505050565b60606110c18261139f565b611100576040517f08c379a00000000000000000000000000000000000000000000000000000000081526004016110f790612d7e565b60405180910390fd5b6000600660008481526020019081526020016000208054611120906130d2565b80601f016020809104026020016040519081016040528092919081815260200182805461114c906130d2565b80156111995780601f1061116e57610100808354040283529160200191611199565b820191906000526020600020905b81548152906001019060200180831161117c57829003601f168201915b5050505050905060006111aa611d55565b90506000815114156111c0578192505050611203565b6000825111156111f55780826040516020016111dd929190612a35565b60405160208183030381529060405292505050611203565b6111fe84611d6c565b925050505b919050565b6000600560008473ffffffffffffffffffffffffffffffffffffffff1673ffffffffffffffffffffffffffffffffffffffff16815260200190815260200160002060008373ffffffffffffffffffffffffffffffffffffffff1673ffffffffffffffffffffffffffffffffffffffff16815260200190815260200160002060009054906101000a900460ff16905092915050565b611332816040516024016112b09190612bde565b6040516020818303038152906040527f41304fac000000000000000000000000000000000000000000000000000000007bffffffffffffffffffffffffffffffffffffffffffffffffffffffff19166020820180517bffffffffffffffffffffffffffffffffffffffffffffffffffffffff8381831617835250505050611e13565b50565b60007f01ffc9a7000000000000000000000000000000000000000000000000000000007bffffffffffffffffffffffffffffffffffffffffffffffffffffffff1916827bffffffffffffffffffffffffffffffffffffffffffffffffffffffff1916149050919050565b60008073ffffffffffffffffffffffffffffffffffffffff166002600084815260200190815260200160002060009054906101000a900473ffffffffffffffffffffffffffffffffffffffff1673ffffffffffffffffffffffffffffffffffffffff1614159050919050565b600033905090565b816004600083815260200190815260200160002060006101000a81548173ffffffffffffffffffffffffffffffffffffffff021916908373ffffffffffffffffffffffffffffffffffffffff160217905550808273ffffffffffffffffffffffffffffffffffffffff1661148683610bb9565b73ffffffffffffffffffffffffffffffffffffffff167f8c5be1e5ebec7d5bd14f71427d1e84f3dd0314c0f7b2291e5b200ac8c7c3b92560405160405180910390a45050565b60006114d78261139f565b611516576040517f08c379a000000000000000000000000000000000000000000000000000000000815260040161150d90612cbe565b60405180910390fd5b600061152183610bb9565b90508073ffffffffffffffffffffffffffffffffffffffff168473ffffffffffffffffffffffffffffffffffffffff16148061159057508373ffffffffffffffffffffffffffffffffffffffff166115788461056a565b73ffffffffffffffffffffffffffffffffffffffff16145b806115a157506115a08185611208565b5b91505092915050565b8273ffffffffffffffffffffffffffffffffffffffff166115ca82610bb9565b73ffffffffffffffffffffffffffffffffffffffff1614611620576040517f08c379a000000000000000000000000000000000000000000000000000000000815260040161161790612dbe565b60405180910390fd5b600073ffffffffffffffffffffffffffffffffffffffff168273ffffffffffffffffffffffffffffffffffffffff161415611690576040517f08c379a000000000000000000000000000000000000000000000000000000000815260040161168790612c7e565b60405180910390fd5b61169b838383611e3c565b6116a6600082611413565b6001600360008573ffffffffffffffffffffffffffffffffffffffff1673ffffffffffffffffffffffffffffffffffffffff16815260200190815260200160002060008282546116f69190612fe8565b925050819055506001600360008473ffffffffffffffffffffffffffffffffffffffff1673ffffffffffffffffffffffffffffffffffffffff168152602001908152602001600020600082825461174d9190612f07565b92505081905550816002600083815260200190815260200160002060006101000a81548173ffffffffffffffffffffffffffffffffffffffff021916908373ffffffffffffffffffffffffffffffffffffffff160217905550808273ffffffffffffffffffffffffffffffffffffffff168473ffffffffffffffffffffffffffffffffffffffff167fddf252ad1be2c89b69c2b068fc378daa952ba7f163c4a11628f55a4df523b3ef60405160405180910390a4505050565b6060600082141561184e576040518060400160405280600181526020017f300000000000000000000000000000000000000000000000000000000000000081525090506119ae565b600082905060005b6000821461188057808061186990613135565b915050600a826118799190612f5d565b9150611856565b60008167ffffffffffffffff8111156118c2577f4e487b7100000000000000000000000000000000000000000000000000000000600052604160045260246000fd5b6040519080825280601f01601f1916602001820160405280156118f45781602001600182028036833780820191505090505b5090505b600085146119a75760018261190d9190612fe8565b9150600a8561191c919061317e565b60306119289190612f07565b60f81b818381518110611964577f4e487b7100000000000000000000000000000000000000000000000000000000600052603260045260246000fd5b60200101907effffffffffffffffffffffffffffffffffffffffffffffffffffffffffffff1916908160001a905350600a856119a09190612f5d565b94506118f8565b8093505050505b919050565b6000816040516020016119c69190612a1e565b6040516020818303038152906040528051906020012060001c9050919050565b600081600001549050919050565b60606000825190506000811415611a1d5760405180602001604052806000815250915050611bad565b60006003600283611a2e9190612f07565b611a389190612f5d565b6004611a449190612f8e565b90506000602082611a559190612f07565b67ffffffffffffffff811115611a94577f4e487b7100000000000000000000000000000000000000000000000000000000600052604160045260246000fd5b6040519080825280601f01601f191660200182016040528015611ac65781602001600182028036833780820191505090505b509050600060405180606001604052806040815260200161390d604091399050600181016020830160005b86811015611b6a5760038101905062ffffff818a015116603f8160121c168401518060081b905060ff603f83600c1c1686015116810190508060081b905060ff603f8360061c1686015116810190508060081b905060ff603f831686015116810190508060e01b90508084526004840193505050611af1565b506003860660018114611b845760028114611b9457611b9f565b613d3d60f01b6002830352611b9f565b603d60f81b60018303525b508484525050819450505050505b919050565b611bcc828260405180602001604052806000815250611e41565b5050565b611bd98261139f565b611c18576040517f08c379a0000000000000000000000000000000000000000000000000000000008152600401611c0f90612d3e565b60405180910390fd5b80600660008481526020019081526020016000209080519060200190611c3f929190612214565b505050565b6001816000016000828254019250508190555050565b611cf4838383604051602401611c7293929190612c00565b6040516020818303038152906040527fe3849f79000000000000000000000000000000000000000000000000000000007bffffffffffffffffffffffffffffffffffffffffffffffffffffffff19166020820180517bffffffffffffffffffffffffffffffffffffffffffffffffffffffff8381831617835250505050611e13565b505050565b611d048484846115aa565b611d1084848484611e9c565b611d4f576040517f08c379a0000000000000000000000000000000000000000000000000000000008152600401611d4690612c3e565b60405180910390fd5b50505050565b606060405180602001604052806000815250905090565b6060611d778261139f565b611db6576040517f08c379a0000000000000000000000000000000000000000000000000000000008152600401611dad90612dde565b60405180910390fd5b6000611dc0611d55565b90506000815111611de05760405180602001604052806000815250611e0b565b80611dea84611806565b604051602001611dfb929190612a35565b6040516020818303038152906040525b915050919050565b60008151905060006a636f6e736f6c652e6c6f679050602083016000808483855afa5050505050565b505050565b611e4b8383612033565b611e586000848484611e9c565b611e97576040517f08c379a0000000000000000000000000000000000000000000000000000000008152600401611e8e90612c3e565b60405180910390fd5b505050565b6000611ebd8473ffffffffffffffffffffffffffffffffffffffff16612201565b15612026578373ffffffffffffffffffffffffffffffffffffffff1663150b7a02611ee661140b565b8786866040518563ffffffff1660e01b8152600401611f089493929190612b4e565b602060405180830381600087803b158015611f2257600080fd5b505af1925050508015611f5357506040513d601f19601f82011682018060405250810190611f509190612558565b60015b611fd6573d8060008114611f83576040519150601f19603f3d011682016040523d82523d6000602084013e611f88565b606091505b50600081511415611fce576040517f08c379a0000000000000000000000000000000000000000000000000000000008152600401611fc590612c3e565b60405180910390fd5b805181602001fd5b63150b7a0260e01b7bffffffffffffffffffffffffffffffffffffffffffffffffffffffff1916817bffffffffffffffffffffffffffffffffffffffffffffffffffffffff19161491505061202b565b600190505b949350505050565b600073ffffffffffffffffffffffffffffffffffffffff168273ffffffffffffffffffffffffffffffffffffffff1614156120a3576040517f08c379a000000000000000000000000000000000000000000000000000000000815260040161209a90612d5e565b60405180910390fd5b6120ac8161139f565b156120ec576040517f08c379a00000000000000000000000000000000000000000000000000000000081526004016120e390612c5e565b60405180910390fd5b6120f860008383611e3c565b6001600360008473ffffffffffffffffffffffffffffffffffffffff1673ffffffffffffffffffffffffffffffffffffffff16815260200190815260200160002060008282546121489190612f07565b92505081905550816002600083815260200190815260200160002060006101000a81548173ffffffffffffffffffffffffffffffffffffffff021916908373ffffffffffffffffffffffffffffffffffffffff160217905550808273ffffffffffffffffffffffffffffffffffffffff16600073ffffffffffffffffffffffffffffffffffffffff167fddf252ad1be2c89b69c2b068fc378daa952ba7f163c4a11628f55a4df523b3ef60405160405180910390a45050565b600080823b905060008111915050919050565b828054612220906130d2565b90600052602060002090601f0160209004810192826122425760008555612289565b82601f1061225b57805160ff1916838001178555612289565b82800160010185558215612289579182015b8281111561228857825182559160200191906001019061226d565b5b509050612296919061229a565b5090565b5b808211156122b357600081600090555060010161229b565b5090565b60006122ca6122c584612e7e565b612e59565b9050828152602081018484840111156122e257600080fd5b6122ed848285613090565b509392505050565b6000813590506123048161388b565b92915050565b600081359050612319816138a2565b92915050565b60008135905061232e816138b9565b92915050565b600081519050612343816138b9565b92915050565b600082601f83011261235a57600080fd5b813561236a8482602086016122b7565b91505092915050565b600081359050612382816138d0565b92915050565b60006020828403121561239a57600080fd5b60006123a8848285016122f5565b91505092915050565b600080604083850312156123c457600080fd5b60006123d2858286016122f5565b92505060206123e3858286016122f5565b9150509250929050565b60008060006060848603121561240257600080fd5b6000612410868287016122f5565b9350506020612421868287016122f5565b925050604061243286828701612373565b9150509250925092565b6000806000806080858703121561245257600080fd5b6000612460878288016122f5565b9450506020612471878288016122f5565b935050604061248287828801612373565b925050606085013567ffffffffffffffff81111561249f57600080fd5b6124ab87828801612349565b91505092959194509250565b600080604083850312156124ca57600080fd5b60006124d8858286016122f5565b92505060206124e98582860161230a565b9150509250929050565b6000806040838503121561250657600080fd5b6000612514858286016122f5565b925050602061252585828601612373565b9150509250929050565b60006020828403121561254157600080fd5b600061254f8482850161231f565b91505092915050565b60006020828403121561256a57600080fd5b600061257884828501612334565b91505092915050565b60006020828403121561259357600080fd5b60006125a184828501612373565b91505092915050565b6125b38161301c565b82525050565b6125c28161302e565b82525050565b60006125d382612ec4565b6125dd8185612eda565b93506125ed81856020860161309f565b6125f68161326b565b840191505092915050565b600061260c82612ecf565b6126168185612eeb565b935061262681856020860161309f565b61262f8161326b565b840191505092915050565b600061264582612ecf565b61264f8185612efc565b935061265f81856020860161309f565b80840191505092915050565b60008154612678816130d2565b6126828186612efc565b9450600182166000811461269d57600181146126ae576126e1565b60ff198316865281860193506126e1565b6126b785612eaf565b60005b838110156126d9578154818901526001820191506020810190506126ba565b838801955050505b50505092915050565b60006126f7603283612eeb565b91506127028261327c565b604082019050919050565b600061271a601c83612eeb565b9150612725826132cb565b602082019050919050565b600061273d602483612eeb565b9150612748826132f4565b604082019050919050565b6000612760601983612eeb565b915061276b82613343565b602082019050919050565b6000612783606383612efc565b915061278e8261336c565b606382019050919050565b60006127a6600b83612efc565b91506127b182613407565b600b82019050919050565b60006127c9602c83612eeb565b91506127d482613430565b604082019050919050565b60006127ec600d83612efc565b91506127f78261347f565b600d82019050919050565b600061280f603883612eeb565b915061281a826134a8565b604082019050919050565b6000612832602a83612eeb565b915061283d826134f7565b604082019050919050565b6000612855602983612eeb565b915061286082613546565b604082019050919050565b6000612878602e83612eeb565b915061288382613595565b604082019050919050565b600061289b600283612efc565b91506128a6826135e4565b600282019050919050565b60006128be602083612eeb565b91506128c98261360d565b602082019050919050565b60006128e1603183612eeb565b91506128ec82613636565b604082019050919050565b6000612904602c83612eeb565b915061290f82613685565b604082019050919050565b6000612927602983612eeb565b9150612932826136d4565b604082019050919050565b600061294a602f83612eeb565b915061295582613723565b604082019050919050565b600061296d600a83612efc565b915061297882613772565b600a82019050919050565b6000612990602183612eeb565b915061299b8261379b565b604082019050919050565b60006129b3600a83612efc565b91506129be826137ea565b600a82019050919050565b60006129d6601d83612efc565b91506129e182613813565b601d82019050919050565b60006129f9603183612eeb565b9150612a048261383c565b604082019050919050565b612a1881613086565b82525050565b6000612a2a828461263a565b915081905092915050565b6000612a41828561263a565b9150612a4d828461263a565b91508190509392505050565b6000612a65828561266b565b9150612a71828461263a565b9150612a7c826127df565b91508190509392505050565b6000612a9382612799565b9150612a9f828461263a565b915081905092915050565b6000612ab582612960565b9150612ac1828561263a565b9150612acc82612776565b9150612ad8828461263a565b9150612ae38261288e565b91508190509392505050565b6000612afa826129a6565b9150612b06828461263a565b915081905092915050565b6000612b1c826129c9565b9150612b28828461263a565b915081905092915050565b6000602082019050612b4860008301846125aa565b92915050565b6000608082019050612b6360008301876125aa565b612b7060208301866125aa565b612b7d6040830185612a0f565b8181036060830152612b8f81846125c8565b905095945050505050565b6000604082019050612baf60008301856125aa565b612bbc6020830184612a0f565b9392505050565b6000602082019050612bd860008301846125b9565b92915050565b60006020820190508181036000830152612bf88184612601565b905092915050565b60006060820190508181036000830152612c1a8186612601565b9050612c296020830185612a0f565b612c3660408301846125aa565b949350505050565b60006020820190508181036000830152612c57816126ea565b9050919050565b60006020820190508181036000830152612c778161270d565b9050919050565b60006020820190508181036000830152612c9781612730565b9050919050565b60006020820190508181036000830152612cb781612753565b9050919050565b60006020820190508181036000830152612cd7816127bc565b9050919050565b60006020820190508181036000830152612cf781612802565b9050919050565b60006020820190508181036000830152612d1781612825565b9050919050565b60006020820190508181036000830152612d3781612848565b9050919050565b60006020820190508181036000830152612d578161286b565b9050919050565b60006020820190508181036000830152612d77816128b1565b9050919050565b60006020820190508181036000830152612d97816128d4565b9050919050565b60006020820190508181036000830152612db7816128f7565b9050919050565b60006020820190508181036000830152612dd78161291a565b9050919050565b60006020820190508181036000830152612df78161293d565b9050919050565b60006020820190508181036000830152612e1781612983565b9050919050565b60006020820190508181036000830152612e37816129ec565b9050919050565b6000602082019050612e536000830184612a0f565b92915050565b6000612e63612e74565b9050612e6f8282613104565b919050565b6000604051905090565b600067ffffffffffffffff821115612e9957612e9861323c565b5b612ea28261326b565b9050602081019050919050565b60008190508160005260206000209050919050565b600081519050919050565b600081519050919050565b600082825260208201905092915050565b600082825260208201905092915050565b600081905092915050565b6000612f1282613086565b9150612f1d83613086565b9250827fffffffffffffffffffffffffffffffffffffffffffffffffffffffffffffffff03821115612f5257612f516131af565b5b828201905092915050565b6000612f6882613086565b9150612f7383613086565b925082612f8357612f826131de565b5b828204905092915050565b6000612f9982613086565b9150612fa483613086565b9250817fffffffffffffffffffffffffffffffffffffffffffffffffffffffffffffffff0483118215151615612fdd57612fdc6131af565b5b828202905092915050565b6000612ff382613086565b9150612ffe83613086565b925082821015613011576130106131af565b5b828203905092915050565b600061302782613066565b9050919050565b60008115159050919050565b60007fffffffff0000000000000000000000000000000000000000000000000000000082169050919050565b600073ffffffffffffffffffffffffffffffffffffffff82169050919050565b6000819050919050565b82818337600083830152505050565b60005b838110156130bd5780820151818401526020810190506130a2565b838111156130cc576000848401525b50505050565b600060028204905060018216806130ea57607f821691505b602082108114156130fe576130fd61320d565b5b50919050565b61310d8261326b565b810181811067ffffffffffffffff8211171561312c5761312b61323c565b5b80604052505050565b600061314082613086565b91507fffffffffffffffffffffffffffffffffffffffffffffffffffffffffffffffff821415613173576131726131af565b5b600182019050919050565b600061318982613086565b915061319483613086565b9250826131a4576131a36131de565b5b828206905092915050565b7f4e487b7100000000000000000000000000000000000000000000000000000000600052601160045260246000fd5b7f4e487b7100000000000000000000000000000000000000000000000000000000600052601260045260246000fd5b7f4e487b7100000000000000000000000000000000000000000000000000000000600052602260045260246000fd5b7f4e487b7100000000000000000000000000000000000000000000000000000000600052604160045260246000fd5b6000601f19601f8301169050919050565b7f4552433732313a207472616e7366657220746f206e6f6e20455243373231526560008201527f63656976657220696d706c656d656e7465720000000000000000000000000000602082015250565b7f4552433732313a20746f6b656e20616c7265616479206d696e74656400000000600082015250565b7f4552433732313a207472616e7366657220746f20746865207a65726f2061646460008201527f7265737300000000000000000000000000000000000000000000000000000000602082015250565b7f4552433732313a20617070726f766520746f2063616c6c657200000000000000600082015250565b7f222c20226465736372697074696f6e223a20224120686967686c79206163636c60008201527f61696d656420636f6c6c656374696f6e206f6620737175617265732e222c202260208201527f696d616765223a2022646174613a696d6167652f7376672b786d6c3b6261736560408201527f36342c0000000000000000000000000000000000000000000000000000000000606082015250565b7f5345434f4e445f574f5244000000000000000000000000000000000000000000600082015250565b7f4552433732313a206f70657261746f7220717565727920666f72206e6f6e657860008201527f697374656e7420746f6b656e0000000000000000000000000000000000000000602082015250565b7f3c2f746578743e3c2f7376673e00000000000000000000000000000000000000600082015250565b7f4552433732313a20617070726f76652063616c6c6572206973206e6f74206f7760008201527f6e6572206e6f7220617070726f76656420666f7220616c6c0000000000000000602082015250565b7f4552433732313a2062616c616e636520717565727920666f7220746865207a6560008201527f726f206164647265737300000000000000000000000000000000000000000000602082015250565b7f4552433732313a206f776e657220717565727920666f72206e6f6e657869737460008201527f656e7420746f6b656e0000000000000000000000000000000000000000000000602082015250565b7f45524337323155524953746f726167653a2055524920736574206f66206e6f6e60008201527f6578697374656e7420746f6b656e000000000000000000000000000000000000602082015250565b7f227d000000000000000000000000000000000000000000000000000000000000600082015250565b7f4552433732313a206d696e7420746f20746865207a65726f2061646472657373600082015250565b7f45524337323155524953746f726167653a2055524920717565727920666f722060008201527f6e6f6e6578697374656e7420746f6b656e000000000000000000000000000000602082015250565b7f4552433732313a20617070726f76656420717565727920666f72206e6f6e657860008201527f697374656e7420746f6b656e0000000000000000000000000000000000000000602082015250565b7f4552433732313a207472616e73666572206f6620746f6b656e2074686174206960008201527f73206e6f74206f776e0000000000000000000000000000000000000000000000602082015250565b7f4552433732314d657461646174613a2055524920717565727920666f72206e6f60008201527f6e6578697374656e7420746f6b656e0000000000000000000000000000000000602082015250565b7f7b226e616d65223a202200000000000000000000000000000000000000000000600082015250565b7f4552433732313a20617070726f76616c20746f2063757272656e74206f776e6560008201527f7200000000000000000000000000000000000000000000000000000000000000602082015250565b7f46495253545f574f524400000000000000000000000000000000000000000000600082015250565b7f646174613a6170706c69636174696f6e2f6a736f6e3b6261736536342c000000600082015250565b7f4552433732313a207472616e736665722063616c6c6572206973206e6f74206f60008201527f776e6572206e6f7220617070726f766564000000000000000000000000000000602082015250565b6138948161301c565b811461389f57600080fd5b50565b6138ab8161302e565b81146138b657600080fd5b50565b6138c28161303a565b81146138cd57600080fd5b50565b6138d981613086565b81146138e457600080fd5b5056fe416e204e465420772f20494420257320686173206265656e206d696e74656420746f2025734142434445464748494a4b4c4d4e4f505152535455565758595a6162636465666768696a6b6c6d6e6f707172737475767778797a303132333435363738392b2fa264697066735822122099f891c609f1a580371cf166956fd38c6e06e03ca0283402b5d5ea9dc7ccabf964736f6c634300080400333c73766720786d6c6e733d27687474703a2f2f7777772e77332e6f72672f323030302f73766727207072657365727665417370656374526174696f3d27784d696e594d696e206d656574272076696577426f783d273020302033353020333530273e3c7374796c653e2e62617365207b2066696c6c3a2077686974653b20666f6e742d66616d696c793a2073657269663b20666f6e742d73697a653a20323470783b207d3c2f7374796c653e3c726563742077696474683d273130302527206865696768743d2731303025272066696c6c3d27626c61636b27202f3e3c7465787420783d273530252720793d273530252720636c6173733d27626173652720646f6d696e616e742d626173656c696e653d276d6964646c652720746578742d616e63686f723d276d6964646c65273e",
  "linkReferences": {},
  "deployedLinkReferences": {}
}